:10000000EAC0000003C1000001C10000FFC0000001
:10001000FDC00000FBC00000F9C00000F7C00000F8
:10002000F5C00000F3C0000020C40000A3C400001D
:10003000EDC00000EBC00000E9C00000E7C0000018
:10004000E5C00000E3C00000E1C00000DFC0000028
:10005000DDC00000B7C20000D9C00000D7C000005A
:10006000D5C00000D3C00000D1C00000CFC0000048
:10007000CDC00000CBC00000C9C00000C7C0000058
:10008000C5C00000C3C00000C1C00000BFC0000068
:10009000BDC00000BBC00000B9C00000B7C0000078
:1000A000B5C00000B3C00000B1C000000A002000CD
:1000B00052656C65613A20000A0020005072657339
:1000C000733A2000000100000B0112000200001D25
:1000D000013B0022000058013F002100002F0109D0
:1000E00000220100970115002101004801090003C9
:1000F0000000AC010401030904B00110020309046B
:10010000C20112000001C10601C126120100020055
:10011000000020C0167D0400010102000109023B1D
:1001200000020100C03209040000010301010009BE
:100130002111010001223F00070583030800010986
:100140000401000103000000092111010001221532
:10015000000705840320000105010906A1017501BE
:100160009508050719E029E7150025018102950189
:100170007508810395057501050819012905910286
:100180009501750391039506750815002568050707
:10019000190029688100C00631FF0974A153750850
:1001A000150026FF00952009758102C0040309048B
:1001B00010034D00660067004E0061006D00650091
:1001C000000012034B006500790062006F006100BF
:1001D00072006400000011241FBECFEFDAE0DEBF22
:1001E000CDBF1BE0A0E0B1E0EAE4FEE002C0059074
:1001F0000D92AC3CB107D9F71CE0ACECBBE001C000
:100200001D92AC3FB107E1F73CD11DC6F9CE982F46
:10021000660F771FE0912001F0912101E60FF71F93
:10022000E081E13049F1E13068F0E230B1F18091F4
:10023000CD0B8093CE0BEF70E093CD0B80E060E0B0
:100240007DC208958823E9F78091CD0B8093CE0B72
:10025000E0E0882309F450C0E093CD0BF0E0EE0F0E
:10026000FF1FE25FFE4F8081918190932101809377
:10027000200180E060E062C28091CD0B8093CE0BC4
:10028000992379F11092CD0B8BEA91E090932101A3
:100290008093200180E060E051C2882381F4809146
:1002A000CD0B8093CE0B88E08093CD0B8BEA9AE048
:1002B000909321018093200180E060E03FC2E091B3
:1002C000CE0BE093CD0BF0E0EE0FFF1FE25FFE4F91
:1002D00080819181909321018093200180E060E0F2
:1002E0002DC2E093CD0B8BEC92E090932101809393
:1002F000200180E060E022C2E1E0AECFCF93DF9347
:1003000080E8809361001092610085B7806885BFA6
:1003100085B7806885BFA2D1C0E9D1E0B6D1882376
:1003200059F428EE33E0CE010197F1F72150304027
:10033000D1F7ABD18823A9F34DD570D576D51092DE
:10034000CC0BECEDFBE01082118232968CE0EC3F9E
:10035000F807C9F77894DF91CF910895CF93DF9391
:100360002091200130912101A0E0B1E0C0EDDBE05F
:1003700007C080E08993129681E0AC30B80789F01D
:10038000ED91FC911197EF3FF10598F7EE0FFF1FEC
:10039000E20FF31F80818993129681E0AC30B80799
:1003A00079F78091CC0B8093CF0B72D1DF91CF91F5
:1003B0000895BC01880F991FFC01E452F44F10828C
:1003C0001182E0912001F0912101E80FF91F818154
:1003D000813001F1823031F1E0E0F1E020E0808114
:1003E00091818617970799F02F5F32962630B9F7DB
:1003F000B5CFE22FF0E0EE0FFF1FDF01AE5FBE4F83
:100400008D919C91E050FF4F918380832F5F263028
:1004100080F3A4CF908190958091CC0B8923809319
:10042000CC0B9CCF81E0F3DE99CFBC01880F991FE4
:10043000FC01E452F44F21E020831182E09120017D
:10044000F0912101E80FF91F8181813081F0823024
:10045000A9F0E8E0F1E08081918193838283329773
:1004600080E0EE3FF807B9F77383628377CF80911E
:10047000CC0B9081892B8093CC0B70CF80E0C7DEB2
:100480006DCF4F925F926F927F928F929F92AF92B9
:10049000BF92CF92DF92EF92FF920F931F93DF9361
:1004A000CF93CDB7DEB7C059D0400FB6F894DEBFBA
:1004B0000FBECDBF23DF4E010894811C911CF401B7
:1004C000CE018F569F4F1192E817F907E1F7662486
:1004D000772485E0482E00E8502E862D90E065D4E4
:1004E000842D8A95F1F71CE6C12E11E0D12EEE2461
:1004F000FF2418C00A2D10E0F401E00FF11F8081E5
:100500008823C1F1080D191DF801B0820894E11C7F
:10051000F11C82E090E0C80ED91E92E1E916F104C8
:1005200009F43FC0A72CAE0CD601ED91FC91D70188
:10053000A057BE4FB0808C91B822E1F60A2D10E092
:10054000F401E00FF11F80818823E1F280EB90E05D
:1005500013D48E2D07D48EEA90E00ED4862D02D4CB
:100560008CEA90E009D4F801EE0FFF1FE452F44F3B
:100570005182C8CF8CEB90E0FFD38E2DF3D38AEB62
:1005800090E0FAD3862DEED388EB90E0F5D3F80116
:10059000EE0FFF1FE452F44F8081882379F011821F
:1005A000B1CFA2E17A0E862D90E008D46394B7E033
:1005B000B61508F092CF662477248FCF8A2D90E06D
:1005C00034DFA0CF1F920F920FB60F9211240F931A
:1005D0001F932F933F934F935F936F937F938F93CB
:1005E0009F93AF93BF93CF93DF93EF93FF93CDEDA3
:1005F000DBE000E010E008C0869588830F5F1F4FA6
:1006000022960039110571F088818130A9F7C8015F
:10061000D0DE8881869588830F5F1F4F2296003930
:10062000110591F7CCD38091CC0B8232A9F0FF91C8
:10063000EF91DF91CF91BF91AF919F918F917F917A
:100640006F915F914F913F912F911F910F910F905B
:100650000FBE0F901F9018957DD0E9CF81E0809359
:10066000D70080EA8093D80082E189BD09B400FEFA
:10067000FDCF80E98093D8001092E0001092D70B54
:100680008CE08093E200789408958091D70B0895D0
:100690008091D70B882309F44FC09FB7F89483E06B
:1006A0008093E9002091E4008091E80085FD1EC060
:1006B0009FBF8091D70B882309F43EC02E5C8091A8
:1006C000E4008217C9F133E009C09FBF8091D70BC6
:1006D000882391F18091E400821771F19FB7F8941B
:1006E0003093E9008091E80085FFEFCF8091CF0B38
:1006F0008093F1001092F1008091D00B8093F10073
:100700008091D10B8093F1008091D20B8093F10006
:100710008091D30B8093F1008091D40B8093F100F2
:100720008091D50B8093F1008AE38093E8001092CA
:10073000D80B9FBF80E008958FEF08956093CF0B93
:100740008093D00BA5DF811108951092CF0B1092EA
:10075000D00B9ECF80E060E0F1DF80E29EE4019765
:10076000F1F7F89481E08093E00080E28093D80074
:10077000E9ECF0E0108280E29EE40197F1F71DBA07
:10078000109268001CBC10BE1FBA10927A00109222
:100790006E0010926F001092710010927200108221
:1007A000ECEBF0E0108214B817B81AB81DB810BA04
:1007B000108215B818B81BB81EB811BA0C940038BE
:1007C0000895482F8091D70B882309F440C09FB724
:1007D000F89484E08093E9008091DB0B882331F06A
:1007E0008091E80085FF3EC01092DB0B2091E40071
:1007F0008091E80085FD1DC02C5F9FBF8091E400C3
:10080000821739F18091D70B882309F134E009C0B0
:100810009FBF8091E4008217E1F08091D70B88237D
:10082000B1F09FB7F8943093E9008091E80085FF1C
:10083000EFCF4093F1008091E80085FD0FC08AE37F
:100840008093E8001092D90B9FBF80E008958FEF4E
:10085000089581E08093DB0B8FEF089582E0809311
:10086000D90BF2CF9FBF8FEF08951F920F920FB653
:100870000F9211242F938F939F938091E1001092F8
:10088000E100982F83FF0FC01092E90081E0809370
:10089000EB001092EC0082E28093ED0088E0809300
:1008A000F0001092D70B92FF5DC08091D70B882388
:1008B00009F458C08091D90B8823A9F08150809306
:1008C000D90B882381F484E08093E9008091E800CB
:1008D00085FF06C01092F1008091E80085FDFACFF7
:1008E0008AE38093E800209122012223D9F18091AC
:1008F000DA0B8F5F8093DA0B90E083709070892B16
:1009000089F583E08093E9008091E80085FF2AC0A3
:100910008091D80B8F5F8093D80B281719F5109210
:10092000D80B8091CF0B8093F1001092F100809151
:10093000D00B8093F1008091D10B8093F1008091D6
:10094000D20B8093F1008091D30B8093F1008091C2
:10095000D40B8093F1008091D50B8093F1008AE352
:100960008093E8009F918F912F910F900FBE0F9071
:100970001F9018951F920F920FB60F9211242F936C
:100980003F934F935F936F937F938F939F93AF9317
:10099000BF93CF93DF93EF93FF931092E900809181
:1009A000E80083FF43C04091F1003091F100809155
:1009B000F100682F70E02091F100922F80E0682B09
:1009C000792B8091F100A82FB0E02091F100922FB7
:1009D00080E0A82BB92B8091F100C82FD0E02091A6
:1009E000F100922F80E0C82BD92B82EF8093E80092
:1009F000363091F1353009F4D0C0393009F487C070
:100A0000383009F4D6C0332309F0AAC08091E80039
:100A100080FFFCCF423809F43AC180E08093F100B6
:100A20001092F1008EEF8093E80003C081E2809382
:100A3000EB00FF91EF91DF91CF91BF91AF919F912B
:100A40008F917F916F915F914F913F912F910F9077
:100A50000FBE0F901F9018952BEC30E0A901455068
:100A6000504008C0295F3F4F495F5F4FF1E02A3097
:100A70003F07E1F2F901379785919491681779075B
:100A800089F7FA0185919491A817B90759F79A0146
:100A90002E5F3F4FF901459154912E5F3F4FF90171
:100AA0002491CE01CF3FD10519F010F08FEF90E0E7
:100AB000622F821708F4682F7EEF8091E800282FBC
:100AC00030E0C90185709070892BB9F322FDB1CF58
:100AD000262F613208F4D7C020E280E090E0FA01CE
:100AE000E80FF91FE491E093F10001962817B9F798
:100AF0002150822F90E02F5F0196480F591F621BF3
:100B00007093E8006623C9F62032B9F292CF4423ED
:100B100069F56093D70B8EEF8093E80083E091E056
:100B200021E02093E900FC010196E491E093EB00C1
:100B3000EE2369F0AC014F5F5F4FFC01849180931D
:100B4000EC00CA010196FA0134913093ED002F5F59
:100B5000253039F78EE18093EA001092EA0069CFE0
:100B6000313009F46BC0333009F468C0109779F55F
:100B7000413A09F4A1C0413209F058CF393009F4A3
:100B80004EC03A3009F4DDC03B3009F04FCF6093DE
:100B900023018EEF8093E8004CCF8EEF8093E80026
:100BA0008091E80080FFFCCF862F80688093E3006F
:100BB00040CF4038D9F68091E80080FFFCCF80918B
:100BC000D70B8093F1008EEF8093E80032CF11971E
:100BD00009F02CCF313009F029CF413A09F026CF66
:100BE0004C2F5EEF8091E800282F30E0C90185701E
:100BF0009070892BB9F322FD1CCF942F413208F459
:100C000057C090E2892F1092F1008150E1F7491B03
:100C10005093E800442331F7903221F30ACF8091BA
:100C2000E80082FFFCCF8091F1008093D60B8BEF20
:100C30008093E8008EEF8093E800FBCE423009F00D
:100C400095CF6115710509F091CF2A2F2F77822F4B
:100C50008150843008F08ACF8EEF8093E800209393
:100C6000E900333009F4E2CE89E18093EB0081E0C2
:100C700090E002C0880F991F2A95E2F78093EA005E
:100C80001092EA00D6CE662309F027CF38CFA09382
:100C9000E9008091EB0090E096958795929582957A
:100CA0008F7089279F70892781701092E900B6CED6
:100CB000442309F0A7CFABCF313089F03230A9F10E
:100CC000333009F0B3CE8091E80080FFFCCF8091F3
:100CD00023018093F1008EEF8093E800AACE8091EB
:100CE000E80080FFFCCF8091CF0B8093F100109241
:100CF000F1008091D00B8093F1008091D10B809313
:100D0000F1008091D20B8093F1008091D30B8093FE
:100D1000F1008091D40B8093F1008091D50B8093EA
:100D2000F1008EEF8093E80084CE8091E80080FF90
:100D3000FCCF809122018093F1008EEF8093E80038
:100D400078CE709322011092D80B8EEF8093E8003A
:100D500070CE982F8A3018F087E3890F32CD80E368
:100D6000890F2FCD1F93182F82958F70F2DF812F5F
:100D70008F70EFDF1F9108951F93CF93DF93FC01D6
:100D80001491112371F0EC0106C0812F1ADDFE01D0
:100D90001491112331F021961A30B9F78DE011DD4D
:100DA000F4CFDF91CF911F91089525B1FC01ED554E
:100DB000FE4F217F8081282B25B90895089595B194
:100DC0008091D60B8295807F809580769F79892B44
:100DD00085B9089584B18E6084B985B1817F85B964
:100DE000A0E9B1E020E030E0F901EC5DFE4F0190B8
:100DF000F081E02D9D919095808189238083F90178
:100E0000E85BFE4F0190F081E02D80818923808393
:100E10002E5F3F4F2432310539F7089584B1806643
:100E200084B985B1806685B9089584B5826084BD32
:100E300085B5846085BDEEE6F0E0808182608083C8
:0A0E400080E287BD0895F894FFCF0B
:100E4A002C012C012C012C012C012C012C01AB01B1
:100E5A00CB02EB030B052B064B076B088B09AB0A7E
:100E6A00AB017D0124002400270027002A002A0064
:100E7A002A002A002A002A002A002A00300030000C
:100E8A0030003000300030002500250028002800FE
:100E9A002B002B002B002B002B002B002B002B00F0
:100EAA0031003100310031003100310023002300CC
:100EBA0026002600290029002900290029002900E6
:100ECA00290029002F002F002F002F002F002F00AC
:100EDA001080408001020408102040800102102086
:100EEA0040800E00020406080A0C0E3700000000BB
:100EFA00002800000000001D001B00190006001059
:100F0A000036000000000010010000000000000090
:100F1A000004013400440000000000290064000AB3
:100F2A00003D000B003F000000520000002C0000B2
:100F3A000000006500400138004500000000000084
:100F4A000000000500000011000000000050000031
:100F5A000051004F0000001200470013000000007B
:100F6A0000000014001A001500080018000C000008
:100F7A0000000048000000000000000F00000033DD
:100F8A000031000000200104001600090007000DCE
:100F9A00000E000000000000000000000080012692
:100FAA0000460027004300000000001E001F002129
:100FBA00002000240025004E004D003E00000000E5
:100FCA00000000400000002F002A00080102012B47
:100FDA0000390017003C001C00300000000000002F
:100FEA0000000000000000410000002D0042000047
:100FFA0000000035003A0022003B0023002E004B7F
:10100A00004A0001014C00490000003700000000BE
:10101A00002800000000001D001B00190006001037
:10102A00003600000000001001000000000000006F
:10103A000004013400440000000000290064000A92
:10104A00003D000B003F000000520000002C000091
:10105A000000006500400138004500000000000063
:10106A000000000500000011000000000050000010
:10107A000051004F0000001200470013000000005A
:10108A0000000014001A001500080018000C0000E7
:10109A0000000048000000000000000F00000033BC
:1010AA000031000000200104001600090007000DAD
:1010BA00000E000000000000000000000080012671
:1010CA0000460027004300000000001E001F002108
:1010DA00002000240025004E004D003E00000000C4
:1010EA00000000400000002F002A00080102012B26
:1010FA0000390017003C001C00300000000000000E
:10110A0000000000000000410000002D0042000025
:10111A0000000035003A0022003B0023002E004B5D
:10112A00004A0001014C004900000037000000009D
:10113A00002800000000001D001B00190006001016
:10114A00003600000000001001000000000000004E
:10115A000004013400440000000000290064000A71
:10116A00003D000B003F000000520000002C000070
:10117A000000006500400138004500000000000042
:10118A0000000005000000110000000000500000EF
:10119A000051004F00000012004700130000000039
:1011AA0000000014001A001500080018000C0000C6
:1011BA0000000048000000000000000F000000339B
:1011CA000031000000200104001600090007000D8C
:1011DA00000E000000000000000000000080012650
:1011EA0000460027004300000000001E001F0021E7
:1011FA00002000240025004E004D003E00000000A3
:10120A00000000400000002F002A00080102012B04
:10121A0000390017003C001C0030000000000000EC
:10122A0000000000000000410000002D0042000004
:10123A0000000035003A0022003B0023002E004B3C
:10124A00004A0001014C004900000037000000007C
:10125A00002800000000001D001B001900060010F5
:10126A00003600000000001001000000000000002D
:10127A000004013400440000000000290064000A50
:10128A00003D000B003F000000520000002C00004F
:10129A000000006500400138004500000000000021
:1012AA0000000005000000110000000000500000CE
:1012BA000051004F00000012004700130000000018
:1012CA0000000014001A001500080018000C0000A5
:1012DA0000000048000000000000000F000000337A
:1012EA000031000000200104001600090007000D6B
:1012FA00000E00000000000000000000008001262F
:10130A0000460027004300000000001E001F0021C5
:10131A00002000240025004E004D003E0000000081
:10132A00000000400000002F002A00080102012BE3
:10133A0000390017003C001C0030000000000000CB
:10134A0000000000000000410000002D00420000E3
:10135A0000000035003A0022003B0023002E004B1B
:10136A00004A0001014C004900000037000000005B
:10137A00002800000000001D001B001900060010D4
:10138A00003600000000001001000000000000000C
:10139A000004013400440000000000290064000A2F
:1013AA00003D000B003F000000520000002C00002E
:1013BA000000006500400138004500000000000000
:1013CA0000000005000000110000000000500000AD
:1013DA000051004F000000120047001300000000F7
:1013EA0000000014001A001500080018000C000084
:1013FA0000000048000000000000000F0000003359
:10140A000031000000200104001600090007000D49
:10141A00000E00000000000000000000008001260D
:10142A0000460027004300000000001E001F0021A4
:10143A00002000240025004E004D003E0000000060
:10144A00000000400000002F002A00080102012BC2
:10145A0000390017003C001C0030000000000000AA
:10146A0000000000000000410000002D00420000C2
:10147A0000000035003A0022003B0023002E004BFA
:10148A00004A0001014C004900000037000000003A
:10149A00002800000000001D001B001900060010B3
:1014AA0000360000000000100100000000000000EB
:1014BA000004013400440000000000290064000A0E
:1014CA00003D000B003F000000520000002C00000D
:1014DA0000000065004001380045000000000000DF
:1014EA00000000050000001100000000005000008C
:1014FA000051004F000000120047001300000000D6
:10150A0000000014001A001500080018000C000062
:10151A0000000048000000000000000F0000003337
:10152A000031000000200104001600090007000D28
:10153A00000E0000000000000000000000800126EC
:10154A0000460027004300000000001E001F002183
:10155A00002000240025004E004D003E000000003F
:10156A00000000400000002F002A00080102012BA1
:10157A0000390017003C001C003000000000000089
:10158A0000000000000000410000002D00420000A1
:10159A0000000035003A0022003B0023002E004BD9
:1015AA00004A0001014C0049000000370000000019
:1015BA00002800000000001D001B00190006001092
:1015CA0000360000000000100100000000000000CA
:1015DA000004013400440000000000290064000AED
:1015EA00003D000B003F000000520000002C0000EC
:1015FA0000000065004001380045000000000000BE
:10160A00000000050000001100000000005000006A
:10161A000051004F000000120047001300000000B4
:10162A0000000014001A001500080018000C000041
:10163A0000000048000000000000000F0000003316
:10164A000031000000200104001600090007000D07
:10165A00000E0000000000000000000000800126CB
:10166A0000460027004300000000001E001F002162
:10167A00002000240025004E004D003E000000001E
:10168A00000000400000002F002A00080102012B80
:10169A0000390017003C001C003000000000000068
:1016AA0000000000000000410000002D0042000080
:1016BA0000000035003A0022003B0023002E004BB8
:1016CA00004A0001014C00490000003700000000F8
:1016DA00002800000000001D001B00190006001071
:1016EA0000360000000000100100000000000000A9
:1016FA000004013400440000000000290064000ACC
:10170A00003D000B003F000000520000002C0000CA
:10171A00000000650040013800450000000000009C
:10172A000000000500000011000000000050000049
:10173A000051004F00000012004700130000000093
:10174A0000000014001A001500080018000C000020
:10175A0000000048000000000000000F00000033F5
:10176A000031000000200104001600090007000DE6
:10177A00000E0000000000000000000000800126AA
:10178A0000460027004300000000001E001F002141
:10179A00002000240025004E004D003E00000000FD
:1017AA00000000400000002F002A00080102012B5F
:1017BA0000390017003C001C003000000000000047
:1017CA0000000000000000410000002D004200005F
:1017DA0000000035003A0022003B0023002E004B97
:1017EA00004A0001014C004900000000000000000E
:1017FA0000000000000000000000000000000000DF
:10180A0000000000000000020200000000000000CA
:10181A0000000000000000000000000000000000BE
:10182A0000000000000000000000000000000000AE
:10183A00000000000000000000000000000000009E
:10184A00000000000000000000000000000000008E
:10185A00000000000000000000000000000000007E
:10186A00000000000000000000000000000000006E
:10187A00000000000000000000000000000000005E
:10188A00000000000000000000000000000000004E
:10189A00000000000000000000000000000000003E
:1018AA0000000010020000000000001102120214E1
:1018BA0002130217020000000000000000000000EE
:1018CA00000000000000000000000000000000000E
:1018DA0000000000000000000000000000000000FE
:1018EA0000000000000000000000000000000000EE
:1018FA0000000000000000150200001602000000AF
:0C190A00000000000000000000000000D1
:00000001FF
