:10000000EAC0000003C1000001C10000FFC0000001
:10001000FDC00000FBC00000F9C00000F7C00000F8
:10002000F5C00000F3C0000023C40000A6C4000017
:10003000EDC00000EBC00000E9C00000E7C0000018
:10004000E5C00000E3C00000E1C00000DFC0000028
:10005000DDC00000BAC20000D9C00000D7C0000057
:10006000D5C00000D3C00000D1C00000CFC0000048
:10007000CDC00000CBC00000C9C00000C7C0000058
:10008000C5C00000C3C00000C1C00000BFC0000068
:10009000BDC00000BBC00000B9C00000B7C0000078
:1000A000B5C00000B3C00000B1C000000A002000CD
:1000B00052656C65613A20000A0020005072657339
:1000C000733A2000000100000B0112000200001D25
:1000D000013B0022000058013F002100002F0109D0
:1000E00000220100970115002101004801090003C9
:1000F0000000AC010401030904B00110020309046B
:10010000C20112000001C10601C126120100020055
:10011000000020C0167D0400010102000109023B1D
:1001200000020100C03209040000010301010009BE
:100130002111010001223F00070583030800010986
:100140000401000103000000092111010001221532
:10015000000705840320000105010906A1017501BE
:100160009508050719E029E7150025018102950189
:100170007508810395057501050819012905910286
:100180009501750391039506750815002568050707
:10019000190029688100C00631FF0974A153750850
:1001A000150026FF00952009758102C0040309048B
:1001B00010034D00660067004E0061006D00650091
:1001C000000012034B006500790062006F006100BF
:1001D00072006400000011241FBECFEFDAE0DEBF22
:1001E000CDBF18E0A0E0B1E0E4EEFEE002C0059073
:1001F0000D92A03DB107D9F719E0A0EDB8E001C01C
:100200001D92AC3AB107E1F73CD16AC6F9CE982FFE
:10021000660F771FE0912001F0912101E60FF71F93
:10022000E081E13049F1E13068F0E230B1F18091F4
:10023000D1088093D208EF70E093D10880E060E0AD
:1002400080C208958823E9F78091D1088093D2086D
:10025000E0E0882309F450C0E093D108F0E0EE0F0D
:10026000FF1FE25FFE4F8081918190932101809377
:10027000200180E060E065C28091D1088093D208BF
:10028000992379F11092D10883EA91E090932101AA
:100290008093200180E060E054C2882381F4809143
:1002A000D1088093D20888E08093D10883E098E059
:1002B000909321018093200180E060E042C2E091B0
:1002C000D208E093D108F0E0EE0FFF1FE25FFE4F8F
:1002D00080819181909321018093200180E060E0F2
:1002E00030C2E093D1088FE692E090932101809391
:1002F000200180E060E025C2E1E0AECFCF93DF9344
:1003000080E8809361001092610085B7806885BFA6
:1003100085B7806885BFA5D1C0E9D1E0B9D1882370
:1003200059F428EE33E0CE010197F1F72150304027
:10033000D1F7AED18823A9F36FD5A9D5C3D5109233
:10034000D008E0EEF8E010821182329689E0EC3AB3
:10035000F807C9F77894DF91CF910895CF93DF9391
:100360002091200130912101A0E0B1E0C4EDD8E05E
:1003700007C080E08993129681E0AC30B80789F01D
:10038000ED91FC911197EF3FF10598F7EE0FFF1FEC
:10039000E20FF31F80818993129681E0AC30B80799
:1003A00079F78091D0088093D30875D1DF91CF91F0
:1003B0000895BC01880F991FFC01E052F74F10828D
:1003C0001182E0912001F0912101E80FF91F818154
:1003D000813001F1823031F1E0E0F1E020E0808114
:1003E00091818617970799F02F5F32962630B9F7DB
:1003F000B5CFE22FF0E0EE0FFF1FDF01AE5FBE4F83
:100400008D919C91E050FF4F918380832F5F263028
:1004100080F3A4CF908190958091D0088923809318
:10042000D0089CCF81E0F3DE99CFBC01880F991FE3
:10043000FC01E052F74F21E020831182E09120017E
:10044000F0912101E80FF91F8181813081F0823024
:10045000A9F0E8E0F1E08081918193838283329773
:1004600080E0EE3FF807B9F77383628377CF80911E
:10047000D0089081892B8093D00870CF80E0C7DEB0
:100480006DCF4F925F926F927F928F929F92AF92B9
:10049000BF92CF92DF92EF92FF920F931F93DF9361
:1004A000CF93CDB7DEB7C656D0400FB6F894DEBFB7
:1004B0000FBECDBF23DF4E010894811C911CF401B7
:1004C000CE0189599F4F1192E817F907E1F7772478
:1004D000662485E0582E00E8402E872D90E068D4F1
:1004E000852D8A95F1F71CE3C12E11E0D12EEE2463
:1004F000FF241AC0AA24A3940B2D10E0F401E00FEE
:10050000F11F8081882309F445C0080D191DF801E9
:10051000A0820894E11CF11C82E090E0C80ED91E74
:1005200096E0E916F10449F1B62CBE0CAA24D601D6
:10053000ED91FC91D701A85BBE4F80819C918923EE
:10054000C9F20B2D10E0F401E00FF11F8081882328
:10055000E1F280EB90E013D48E2D07D48EEA90E088
:100560000ED4872D02D48CEA90E009D4F801EE0F66
:10057000FF1FE052F74F4182C8CFA6E06A0E872DD9
:1005800090E027D47394B0E1B71508F0A6CF772494
:100590006624A3CF8CEB90E0F2D38E2DE6D38AEBCA
:1005A00090E0EDD3872DE1D388EB90E0E8D3F8011C
:1005B000EE0FFF1FE052F74F8081882311F0118268
:1005C000A4CF8B2D90E031DFA0CF1F920F920FB6FA
:1005D0000F9211240F931F932F933F934F935F9389
:1005E0006F937F938F939F93AF93BF93CF93DF933B
:1005F000EF93FF93C1EED8E000E010E008C08695CD
:1006000088830F5F1F4F22960636110571F088818F
:100610008130A9F7C801CDDE8881869588830F5F78
:100620001F4F22960636110591F7E3D38091D0082B
:100630008232A9F0FF91EF91DF91CF91BF91AF91FD
:100640009F918F917F916F915F914F913F912F91EA
:100650001F910F910F900FBE0F901F9018957DD096
:10066000E9CF81E08093D70080EA8093D80082E1CF
:1006700089BD09B400FEFDCF80E98093D8001092B7
:10068000E0001092DB088CE08093E20078940895FB
:100690008091DB0808958091DB08882309F44FC01E
:1006A0009FB7F89483E08093E9002091E400809163
:1006B000E80085FD1EC09FBF8091DB08882309F4F8
:1006C0003EC02E5C8091E4008217C9F133E009C07E
:1006D0009FBF8091DB08882391F18091E40082170D
:1006E00071F19FB7F8943093E9008091E80085FF9D
:1006F000EFCF8091D3088093F1001092F1008091A8
:10070000D4088093F1008091D5088093F100809106
:10071000D6088093F1008091D7088093F1008091F2
:10072000D8088093F1008091D9088093F1008AE382
:100730008093E8001092DC089FBF80E008958FEF5F
:1007400008956093D3088093D408A5DF811108959C
:100750001092D3081092D4089ECF80E060E0F1DFC1
:1007600080E29EE40197F1F7F89481E08093E00045
:1007700080E28093D800E9ECF0E0108280E29EE411
:100780000197F1F71DBA109268001CBC10BE1FBA89
:1007900010927A0010926E0010926F001092710009
:1007A000109272001082ECEBF0E0108214B817B8CF
:1007B0001AB81DB810BA108215B818B81BB81EB8F0
:1007C00011BA0C94003F0895482F8091DB088823CC
:1007D00009F440C09FB7F89484E08093E9008091C9
:1007E000DF08882331F08091E80085FF3EC0109239
:1007F000DF082091E4008091E80085FD1DC02C5F9A
:100800009FBF8091E400821739F18091DB08882333
:1008100009F134E009C09FBF8091E4008217E1F044
:100820008091DB088823B1F09FB7F8943093E900FA
:100830008091E80085FFEFCF4093F1008091E800C0
:1008400085FD0FC08AE38093E8001092DD089FBF0A
:1008500080E008958FEF089581E08093DF088FEFA7
:10086000089582E08093DD08F2CF9FBF8FEF089557
:100870001F920F920FB60F9211242F938F939F9375
:100880008091E1001092E100982F83FF0FC0109239
:10089000E90081E08093EB001092EC0082E280930B
:1008A000ED0088E08093F0001092DB0892FF5DC0BD
:1008B0008091DB08882309F458C08091DD088823E3
:1008C000A9F081508093DD08882381F484E080932F
:1008D000E9008091E80085FF06C01092F100809148
:1008E000E80085FDFACF8AE38093E8002091220199
:1008F0002223D9F18091DE088F5F8093DE0890E09B
:1009000083709070892B89F583E08093E900809152
:10091000E80085FF2AC08091DC088F5F8093DC08A7
:10092000281719F51092DC088091D3088093F10004
:100930001092F1008091D4088093F1008091D50845
:100940008093F1008091D6088093F1008091D708C0
:100950008093F1008091D8088093F1008091D908AC
:100960008093F1008AE38093E8009F918F912F910B
:100970000F900FBE0F901F9018951F920F920FB6F9
:100980000F9211242F933F934F935F936F937F9315
:100990008F939F93AF93BF93CF93DF93EF93FF9387
:1009A0001092E9008091E80083FF43C04091F1007C
:1009B0003091F1008091F100682F70E02091F100FA
:1009C000922F80E0682B792B8091F100A82FB0E066
:1009D0002091F100922F80E0A82BB92B8091F1009B
:1009E000C82FD0E02091F100922F80E0C82BD92BA6
:1009F00082EF8093E800363091F1353009F4D0C0B1
:100A0000393009F487C0383009F4D6C0332309F0EF
:100A1000AAC08091E80080FFFCCF423809F43AC1B7
:100A200080E08093F1001092F1008EEF8093E80057
:100A300003C081E28093EB00FF91EF91DF91CF91B2
:100A4000BF91AF919F918F917F916F915F914F91E6
:100A50003F912F910F900FBE0F901F9018952BEC88
:100A600030E0A9014550504008C0295F3F4F495F21
:100A70005F4FF1E02A303F07E1F2F90137978591A6
:100A800094916817790789F7FA0185919491A817CD
:100A9000B90759F79A012E5F3F4FF90145915491DB
:100AA0002E5F3F4FF9012491CE01CF3FD10519F0C0
:100AB00010F08FEF90E0622F821708F4682F7EEF1E
:100AC0008091E800282F30E0C90185709070892B53
:100AD000B9F322FDB1CF262F613208F4D7C020E24E
:100AE00080E090E0FA01E80FF91FE491E093F10053
:100AF00001962817B9F72150822F90E02F5F0196B9
:100B0000480F591F621B7093E8006623C9F6203214
:100B1000B9F292CF442369F56093DB088EEF80939E
:100B2000E80083E091E021E02093E900FC010196D8
:100B3000E491E093EB00EE2369F0AC014F5F5F4F6F
:100B4000FC0184918093EC00CA010196FA01349172
:100B50003093ED002F5F253039F78EE18093EA0066
:100B60001092EA0069CF313009F46BC0333009F4D8
:100B700068C0109779F5413A09F4A1C0413209F0F3
:100B800058CF393009F44EC03A3009F4DDC03B305B
:100B900009F04FCF609323018EEF8093E8004CCF94
:100BA0008EEF8093E8008091E80080FFFCCF862FD5
:100BB00080688093E30040CF4038D9F68091E80008
:100BC00080FFFCCF8091DB088093F1008EEF809353
:100BD000E80032CF119709F02CCF313009F029CF3E
:100BE000413A09F026CF4C2F5EEF8091E800282F84
:100BF00030E0C90185709070892BB9F322FD1CCFBC
:100C0000942F413208F457C090E2892F1092F100DE
:100C10008150E1F7491B5093E800442331F79032AB
:100C200021F30ACF8091E80082FFFCCF8091F10090
:100C30008093DA088BEF8093E8008EEF8093E800D2
:100C4000FBCE423009F095CF6115710509F091CFC7
:100C50002A2F2F77822F8150843008F08ACF8EEF91
:100C60008093E8002093E900333009F4E2CE89E173
:100C70008093EB0081E090E002C0880F991F2A95D5
:100C8000E2F78093EA001092EA00D6CE662309F0DC
:100C900027CF38CFA093E9008091EB0090E09695A4
:100CA0008795929582958F7089279F70892781708B
:100CB0001092E900B6CE442309F0A7CFABCF313074
:100CC00089F03230A9F1333009F0B3CE8091E800D9
:100CD00080FFFCCF809123018093F1008EEF809301
:100CE000E800AACE8091E80080FFFCCF8091D30875
:100CF0008093F1001092F1008091D4088093F1006C
:100D00008091D5088093F1008091D6088093F100FE
:100D10008091D7088093F1008091D8088093F100EA
:100D20008091D9088093F1008EEF8093E80084CE03
:100D30008091E80080FFFCCF809122018093F10038
:100D40008EEF8093E80078CE709322011092DC0839
:100D50008EEF8093E80070CE982F8A3018F087E3EA
:100D6000890F32CD80E3890F2FCD1F93182F8295E5
:100D70008F70F2DF812F8F70EFDF1F9108951F9327
:100D8000CF93DF93FC011491112371F0EC0106C0A5
:100D9000812F1ADDFE011491112331F021961A30B2
:100DA000B9F78DE011DDF4CFDF91CF911F91089558
:100DB000DC01FC01EE0FFF1FE059FE4F0190F081B6
:100DC000E02DAE56BE4F9C91909580818923808303
:100DD0000895DC01FC01EE0FFF1FE059FE4F01906A
:100DE000F081E02DAE56BE4F80819C91892B80838F
:100DF000089595B18091DA088295880F807C9F7361
:100E0000892B85B994B18091DA088295880F807C0E
:100E10009F73892B84B90895A8E4B1E040E050E0C5
:100E2000FA01EC5DFE4F0190F081E02D2D91922FA3
:100E30009095808189238083FA01E05DFE4F0190C7
:100E4000F081E02D8081822B80834E5F5F4F4C309C
:100E5000510531F7A2E9B1E020E030E0F901E25BB1
:100E6000FE4F0190F081E02D80819D91892B808340
:100E7000F901E059FE4F0190F081E02D8081892B2E
:100E800080832E5F3F4F2232310541F70895E0E81D
:100E9000F0E0808189628083E1E8F0E080818C600D
:100EA00080838AEF90E090938B0080938A009093E8
:100EB0008D0080938C0084B18F7384B985B18F735A
:100EC00085B9089584B5826084BD85B5846085BD8B
:100ED000EEE6F0E080818260808380E287BD089545
:040EE000F894FFCFB4
:100EE4002C012C012C012C012C012C012C01A3011F
:100EF4006F023B030704D3049F056B0637070308FF
:100F0400A3017D01240024002400240024002400E3
:100F140025002500250025002500250023002300A9
:100F240023002300230023000102040810202A00C8
:100F3400270027002A002A002D003000300030004E
:100F44003000300030002A002A002A002A002A003B
:100F54002B00280028002B002B002E00310031002C
:100F640031003100310031002B002B002B002B000D
:100F74002B0020804010014001021020408080405E
:100F84000204080101020139002B001E0029000897
:100F9400016400040014001F00350004011D001644
:100FA400001A0020003A0000001B0007000800217E
:100FB400003B00000006000900150022003C000070
:100FC4000019000A00170023003D00000005000B73
:100FD400001C0024003E002C0011000D0018002508
:100FE400003F00000010000E000C0026004000002E
:100FF4000036000F001200270041000000370033C4
:101004000013002D0042004001380034002F002E50
:10101400004300650000003100300000004400106F
:10102400012001280031002A004500500000000082
:10103400004C00490046005100520000004D004A97
:101044000047004F00000000004E004B0048000124
:1010540001020139002B001E00290008016400046C
:101064000014001F00350004011D0016001A0020A2
:10107400003A0000001B000700080021003B0000AC
:101084000006000900150022003C00000019000AB7
:1010940000170023003D00000005000B001C002485
:1010A400003E002C0011000D00180025003F000038
:1010B4000010000E000C0026004000000036000F57
:1010C4000012002700410000003700330013002DF8
:1010D4000042004001380034002F002E0043006518
:1010E40000000031003000000044001001200128FD
:1010F4000031002A0045005000000000004C004967
:101104000046005100520000004D004A0047004FC5
:1011140000000000004E004B0048000101020139AC
:10112400002B001E00290008016400040014001FA5
:1011340000350004011D0016001A0020003A0000CA
:10114400001B000700080021003B00000006000906
:1011540000150022003C00000019000A00170023BB
:10116400003D00000005000B001C0024003E002C84
:101174000011000D00180025003F00000010000EB3
:10118400000C0026004000000036000F001200276B
:1011940000410000003700330013002D00420040DE
:1011A40001380034002F002E004300650000003198
:1011B4000030000000440010012001280031002A02
:1011C4000045005000000000004C0049004600515A
:1011D40000520000004D004A0047004F000000008C
:1011E400004E004B0048000101020139002B001E93
:1011F40000290008016400040014001F00350004E5
:10120400011D0016001A0020003A0000001B000710
:1012140000080021003B0000000600090015002220
:10122400003C00000019000A00170023003D0000E4
:101234000005000B001C0024003E002C0011000DD2
:1012440000180025003F00000010000E000C0026CE
:10125400004000000036000F00120027004100008B
:10126400003700330013002D0042004001380034E1
:10127400002F002E00430065000000310030000004
:1012840000440010012001280031002A00450050CC
:1012940000000000004C00490046005100520000CC
:1012A400004D004A0047004F00000000004E004B74
:1012B4000048000101020139002B001E002900082A
:1012C400016400040014001F00350004011D001611
:1012D400001A0020003A0000001B0007000800214B
:1012E400003B00000006000900150022003C00003D
:1012F4000019000A00170023003D00000005000B40
:10130400001C0024003E002C0011000D00180025D4
:10131400003F00000010000E000C002600400000FA
:101324000036000F00120027004100000037003390
:101334000013002D0042004001380034002F002E1D
:10134400004300650000003100300000004400103C
:10135400012001280031002A00450050000000004F
:10136400004C00490046005100520000004D004A64
:101374000047004F00000000004E004B00480001F1
:1013840001020139002B001E002900080164000439
:101394000014001F00350004011D0016001A00206F
:1013A400003A0000001B000700080021003B000079
:1013B4000006000900150022003C00000019000A84
:1013C40000170023003D00000005000B001C002452
:1013D400003E002C0011000D00180025003F000005
:1013E4000010000E000C0026004000000036000F24
:1013F4000012002700410000003700330013002DC5
:101404000042004001380034002F002E00430065E4
:1014140000000031003000000044001001200128C9
:101424000031002A0045005000000000004C004933
:101434000046005100520000004D004A0047004F92
:1014440000000000004E004B004800010102013979
:10145400002B001E00290008016400040014001F72
:1014640000350004011D0016001A0020003A000097
:10147400001B000700080021003B000000060009D3
:1014840000150022003C00000019000A0017002388
:10149400003D00000005000B001C0024003E002C51
:1014A4000011000D00180025003F00000010000E80
:1014B400000C0026004000000036000F0012002738
:1014C40000410000003700330013002D00420040AB
:1014D40001380034002F002E004300650000003165
:1014E4000030000000440010012001280031002ACF
:1014F4000045005000000000004C00490046005127
:1015040000520000004D004A0047004F0000000058
:10151400004E004B0048000101020139002B001E5F
:1015240000290008016400040014001F00350004B1
:10153400011D0016001A0020003A0000001B0007DD
:1015440000080021003B00000006000900150022ED
:10155400003C00000019000A00170023003D0000B1
:101564000005000B001C0024003E002C0011000D9F
:1015740000180025003F00000010000E000C00269B
:10158400004000000036000F001200270041000058
:10159400003700330013002D0042004001380034AE
:1015A400002F002E004300650000003100300000D1
:1015B40000440010012001280031002A0045005099
:1015C40000000000004C0049004600510052000099
:1015D400004D004A0047004F00000000004E004B41
:1015E400004800000000000000000011020000009C
:1015F40000000000000000120200000000000000D3
:1016040000000013020000000000000000000014AD
:1016140002000000000000000000001502000000AD
:10162400000000000000001602000000000000009E
:10163400000000170200000000000000000000008D
:101644000000000000000000000000000000000096
:101654000000000000000010020000000000000074
:101664000000000000000000000000000000000076
:101674000000000000000000000000000000000264
:101684000200000000000000000000000000000054
:101694000000000000000000000000000000000046
:1016A4000000000000000000000000000000000036
:00000001FF
